{
  "contractName": "Exchange",
  "abi": [
    {
      "inputs": [
        {
          "internalType": "address",
          "name": "_token",
          "type": "address"
        }
      ],
      "stateMutability": "nonpayable",
      "type": "constructor"
    },
    {
      "anonymous": false,
      "inputs": [
        {
          "indexed": true,
          "internalType": "address",
          "name": "from",
          "type": "address"
        },
        {
          "indexed": true,
          "internalType": "address",
          "name": "to",
          "type": "address"
        },
        {
          "indexed": false,
          "internalType": "uint256",
          "name": "value",
          "type": "uint256"
        },
        {
          "indexed": false,
          "internalType": "uint256",
          "name": "id",
          "type": "uint256"
        }
      ],
      "name": "TransferIn",
      "type": "event"
    },
    {
      "inputs": [
        {
          "internalType": "uint256",
          "name": "",
          "type": "uint256"
        }
      ],
      "name": "_orders",
      "outputs": [
        {
          "internalType": "uint256",
          "name": "id",
          "type": "uint256"
        },
        {
          "internalType": "address",
          "name": "from",
          "type": "address"
        },
        {
          "internalType": "uint256",
          "name": "amount",
          "type": "uint256"
        }
      ],
      "stateMutability": "view",
      "type": "function",
      "constant": true
    },
    {
      "inputs": [],
      "name": "length",
      "outputs": [
        {
          "internalType": "uint256",
          "name": "",
          "type": "uint256"
        }
      ],
      "stateMutability": "view",
      "type": "function",
      "constant": true
    },
    {
      "inputs": [],
      "name": "owner",
      "outputs": [
        {
          "internalType": "address",
          "name": "",
          "type": "address"
        }
      ],
      "stateMutability": "view",
      "type": "function",
      "constant": true
    },
    {
      "inputs": [
        {
          "internalType": "address",
          "name": "_new_admin",
          "type": "address"
        }
      ],
      "name": "setAdmin",
      "outputs": [],
      "stateMutability": "nonpayable",
      "type": "function"
    },
    {
      "inputs": [
        {
          "internalType": "uint256",
          "name": "_value",
          "type": "uint256"
        }
      ],
      "name": "transferIn",
      "outputs": [],
      "stateMutability": "nonpayable",
      "type": "function"
    },
    {
      "inputs": [
        {
          "internalType": "uint256",
          "name": "_order_id",
          "type": "uint256"
        }
      ],
      "name": "checkStatus",
      "outputs": [
        {
          "internalType": "uint256",
          "name": "id",
          "type": "uint256"
        },
        {
          "internalType": "address",
          "name": "from",
          "type": "address"
        },
        {
          "internalType": "uint256",
          "name": "amount",
          "type": "uint256"
        }
      ],
      "stateMutability": "view",
      "type": "function",
      "constant": true
    },
    {
      "inputs": [],
      "name": "getOrders",
      "outputs": [
        {
          "components": [
            {
              "internalType": "uint256",
              "name": "id",
              "type": "uint256"
            },
            {
              "internalType": "address",
              "name": "from",
              "type": "address"
            },
            {
              "internalType": "uint256",
              "name": "amount",
              "type": "uint256"
            }
          ],
          "internalType": "struct Exchange.Order[]",
          "name": "",
          "type": "tuple[]"
        }
      ],
      "stateMutability": "view",
      "type": "function",
      "constant": true
    }
  ],
  "bytecode": "0x60806040526000805534801561001457600080fd5b50604051610dec380380610dec833981810160405281019061003691906100d3565b80600160006101000a81548173ffffffffffffffffffffffffffffffffffffffff021916908373ffffffffffffffffffffffffffffffffffffffff16021790555033600360006101000a81548173ffffffffffffffffffffffffffffffffffffffff021916908373ffffffffffffffffffffffffffffffffffffffff16021790555050610145565b6000815190506100cd8161012e565b92915050565b6000602082840312156100e557600080fd5b60006100f3848285016100be565b91505092915050565b60006101078261010e565b9050919050565b600073ffffffffffffffffffffffffffffffffffffffff82169050919050565b610137816100fc565b811461014257600080fd5b50565b610c98806101546000396000f3fe608060405234801561001057600080fd5b506004361061007d5760003560e01c80634e5919ef1161005b5780634e5919ef146100f0578063704b6c02146101225780638da5cb5b1461013e578063d65014c31461015c5761007d565b80631f7b6d32146100825780632858c764146100a05780632e2dc43e146100d2575b600080fd5b61008a610178565b6040516100979190610a42565b60405180910390f35b6100ba60048036038101906100b59190610851565b61017e565b6040516100c993929190610a5d565b60405180910390f35b6100da610311565b6040516100e79190610a00565b60405180910390f35b61010a60048036038101906101059190610851565b6103da565b60405161011993929190610a5d565b60405180910390f35b61013c600480360381019061013791906107ff565b610434565b005b610146610508565b60405161015391906109ae565b60405180910390f35b61017660048036038101906101719190610851565b61052e565b005b60005481565b600080600080600090505b600054811061030857600281815481106101cc577f4e487b7100000000000000000000000000000000000000000000000000000000600052603260045260246000fd5b9060005260206000209060030201600001548514156102f5576002818154811061021f577f4e487b7100000000000000000000000000000000000000000000000000000000600052603260045260246000fd5b9060005260206000209060030201600001546002828154811061026b577f4e487b7100000000000000000000000000000000000000000000000000000000600052603260045260246000fd5b906000526020600020906003020160010160009054906101000a900473ffffffffffffffffffffffffffffffffffffffff16600283815481106102d7577f4e487b7100000000000000000000000000000000000000000000000000000000600052603260045260246000fd5b9060005260206000209060030201600201549350935093505061030a565b808061030090610ba5565b915050610189565b505b9193909250565b60606002805480602002602001604051908101604052809291908181526020016000905b828210156103d15783829060005260206000209060030201604051806060016040529081600082015481526020016001820160009054906101000a900473ffffffffffffffffffffffffffffffffffffffff1673ffffffffffffffffffffffffffffffffffffffff1673ffffffffffffffffffffffffffffffffffffffff16815260200160028201548152505081526020019060010190610335565b50505050905090565b600281815481106103ea57600080fd5b90600052602060002090600302016000915090508060000154908060010160009054906101000a900473ffffffffffffffffffffffffffffffffffffffff16908060020154905083565b600360009054906101000a900473ffffffffffffffffffffffffffffffffffffffff1673ffffffffffffffffffffffffffffffffffffffff163373ffffffffffffffffffffffffffffffffffffffff16146104c4576040517f08c379a00000000000000000000000000000000000000000000000000000000081526004016104bb90610a22565b60405180910390fd5b80600360006101000a81548173ffffffffffffffffffffffffffffffffffffffff021916908373ffffffffffffffffffffffffffffffffffffffff16021790555050565b600360009054906101000a900473ffffffffffffffffffffffffffffffffffffffff1681565b600160009054906101000a900473ffffffffffffffffffffffffffffffffffffffff1673ffffffffffffffffffffffffffffffffffffffff166323b872dd33600360009054906101000a900473ffffffffffffffffffffffffffffffffffffffff16846040518463ffffffff1660e01b81526004016105af939291906109c9565b602060405180830381600087803b1580156105c957600080fd5b505af11580156105dd573d6000803e3d6000fd5b505050506040513d601f19601f820116820180604052508101906106019190610828565b5061060a610789565b6000548160000181815250508181604001818152505033816020019073ffffffffffffffffffffffffffffffffffffffff16908173ffffffffffffffffffffffffffffffffffffffff168152505060028190806001815401808255809150506001900390600052602060002090600302016000909190919091506000820151816000015560208201518160010160006101000a81548173ffffffffffffffffffffffffffffffffffffffff021916908373ffffffffffffffffffffffffffffffffffffffff160217905550604082015181600201555050600360009054906101000a900473ffffffffffffffffffffffffffffffffffffffff1673ffffffffffffffffffffffffffffffffffffffff163373ffffffffffffffffffffffffffffffffffffffff167fc6b2705fef56491dc74644c481bb3ca3357d1b3a113f993b02bcad198564fde584600054604051610764929190610a94565b60405180910390a3600160008082825461077e9190610b07565b925050819055505050565b604051806060016040528060008152602001600073ffffffffffffffffffffffffffffffffffffffff168152602001600081525090565b6000813590506107cf81610c1d565b92915050565b6000815190506107e481610c34565b92915050565b6000813590506107f981610c4b565b92915050565b60006020828403121561081157600080fd5b600061081f848285016107c0565b91505092915050565b60006020828403121561083a57600080fd5b6000610848848285016107d5565b91505092915050565b60006020828403121561086357600080fd5b6000610871848285016107ea565b91505092915050565b6000610886838361094e565b60608301905092915050565b61089b81610b5d565b82525050565b6108aa81610b5d565b82525050565b60006108bb82610acd565b6108c58185610ae5565b93506108d083610abd565b8060005b838110156109015781516108e8888261087a565b97506108f383610ad8565b9250506001810190506108d4565b5085935050505092915050565b600061091b601c83610af6565b91507f45786368616e67653a20416374696f6e206e6f7420416c6f77656421000000006000830152602082019050919050565b6060820160008201516109646000850182610990565b5060208201516109776020850182610892565b50604082015161098a6040850182610990565b50505050565b61099981610b9b565b82525050565b6109a881610b9b565b82525050565b60006020820190506109c360008301846108a1565b92915050565b60006060820190506109de60008301866108a1565b6109eb60208301856108a1565b6109f8604083018461099f565b949350505050565b60006020820190508181036000830152610a1a81846108b0565b905092915050565b60006020820190508181036000830152610a3b8161090e565b9050919050565b6000602082019050610a57600083018461099f565b92915050565b6000606082019050610a72600083018661099f565b610a7f60208301856108a1565b610a8c604083018461099f565b949350505050565b6000604082019050610aa9600083018561099f565b610ab6602083018461099f565b9392505050565b6000819050602082019050919050565b600081519050919050565b6000602082019050919050565b600082825260208201905092915050565b600082825260208201905092915050565b6000610b1282610b9b565b9150610b1d83610b9b565b9250827fffffffffffffffffffffffffffffffffffffffffffffffffffffffffffffffff03821115610b5257610b51610bee565b5b828201905092915050565b6000610b6882610b7b565b9050919050565b60008115159050919050565b600073ffffffffffffffffffffffffffffffffffffffff82169050919050565b6000819050919050565b6000610bb082610b9b565b91507fffffffffffffffffffffffffffffffffffffffffffffffffffffffffffffffff821415610be357610be2610bee565b5b600182019050919050565b7f4e487b7100000000000000000000000000000000000000000000000000000000600052601160045260246000fd5b610c2681610b5d565b8114610c3157600080fd5b50565b610c3d81610b6f565b8114610c4857600080fd5b50565b610c5481610b9b565b8114610c5f57600080fd5b5056fea2646970667358221220c09cf00df90e465f62c10f8c705f92facf3f7ddadd78285969062e15c6718b5f64736f6c63430008000033",
  "immutableReferences": {},
  "source": "// SPDX-License-Identifier: UNLICENCED\r\npragma solidity >=0.4.22 <0.9.0;\r\n\r\nimport './IERC20.sol';\r\n\r\ncontract Exchange{\r\n    // Define Struct\r\n    struct Order{\r\n        uint256 id;\r\n        address from;\r\n        uint256 amount;\r\n    }\r\n    // Define properties\r\n    uint256 public length = 0;\r\n    IERC20 token;\r\n    Order[] public _orders;\r\n    // mapping(address=>uint256) public _uncleared_balances;\r\n\r\n    address public owner;\r\n\r\n    // Define Modifiers\r\n    modifier onlyAdmin(){\r\n        require(msg.sender == owner,\"Exchange: Action not Alowed!\");\r\n        _;\r\n    }\r\n\r\n    // Define Events\r\n    event TransferIn(address indexed from,address indexed to, uint256 value, uint256 id);\r\n    // event TransferOut(address indexed from,address indexed to, uint256 value);\r\n\r\n    constructor(address _token){\r\n        token = IERC20(_token);\r\n        owner = msg.sender;\r\n    }\r\n\r\n    function setAdmin(address _new_admin) public virtual onlyAdmin{\r\n        owner = _new_admin;\r\n    }\r\n\r\n    // A function is called to start Swaping Process \r\n    function transferIn(uint256 _value) public virtual{\r\n        // Transfer Amount\r\n        token.transferFrom(msg.sender, owner, _value);\r\n\r\n        // Add to order\r\n        Order memory _order;\r\n        _order.id = length;\r\n        _order.amount = _value;\r\n        _order.from = msg.sender;\r\n        _orders.push(_order);\r\n\r\n\r\n        // Emit Event\r\n        emit TransferIn(msg.sender, owner, _value, length);\r\n\r\n        length +=1;\r\n    }\r\n\r\n    function checkStatus(uint256 _order_id) public virtual view returns(uint256 id,address from,uint256 amount){\r\n        for(uint256 i = 0; i>=length;i++){\r\n            if(_order_id ==_orders[i].id){\r\n                return (_orders[i].id,_orders[i].from,_orders[i].amount);\r\n            }\r\n        }\r\n    }\r\n\r\n    function getOrders() public virtual view returns(Order[] memory){\r\n        return _orders;\r\n    }\r\n}\r\n\r\n\r\n",
  "sourcePath": "C:\\PROJECT\\TOKEN\\Exchange\\contracts\\Exchange.sol",
  "compiler": {
    "name": "solc",
    "version": "0.8.0+commit.c7dfd78e.Emscripten.clang"
  },
  "schemaVersion": "3.4.3",
  "updatedAt": "2021-09-16T08:55:44.140Z",
  "networkType": "ethereum",
  "devdoc": {
    "kind": "dev",
    "methods": {},
    "version": 1
  },
  "userdoc": {
    "kind": "user",
    "methods": {},
    "version": 1
  }
}